:020000040800F2
:10000000004400205D020008AB0E0008FB0D000854
:10001000A90E00088D0300085D1000080000000014
:100020000000000000000000000000009D0100082A
:100030008F03000800000000F9010008BD0E000851
:1000400077020008770200087702000877020008AC
:10005000770200087702000877020008770200089C
:10006000770200087702000877020008770200088C
:10007000770200087702000877020008770200087C
:10008000770200087702000877020008770200086C
:10009000770200087702000877020008770200085C
:1000A00077020008890F000877020008770200082D
:1000B000770200087702000877020008770200083C
:1000C000770200087702000877020008770200082C
:1000D000770200087702000877020008770200081C
:1000E000770200087702000877020008770200080C
:1000F00077020008770200087702000877020008FC
:1001000077020008770200087702000877020008EB
:1001100077020008770200087702000877020008DB
:1001200077020008770200087702000877020008CB
:1001300077020008770200087702000877020008BB
:1001400077020008770200087702000877020008AB
:10015000770200087702000877020008770200089B
:10016000770200087702000877020008770200088B
:1001700077020008770200087702000800000000FC
:100180007702000877020008DFF80CD000F0ECF8E6
:10019000004800479D100008004400202C4B1968BF
:1001A0000868B0E8F04F80F30988BFF36F8F4FF015
:1001B000000080F3118870470000000008480068C4
:1001C000006880F308884FF0000080F3148862B65E
:1001D00061B6BFF34F8FBFF36F8F00DF00BF00BF6B
:1001E00008ED00E0DFF80C00016841F470010160E7
:1001F000704700BF88ED00E0EFF30980BFF36F8F19
:10020000134B1A681EF0100F08BF20ED108A20E96A
:10021000F04F106009B44FF0500080F31188BFF325
:100220004F8FBFF36F8F01F0D1FA4FF0000080F3D2
:10023000118809BC19680868B0E8F04F1EF0100F6B
:1002400008BFB0EC108A80F30988BFF36F8F704746
:1002500018000020EFF30580704700000648804733
:1002600006480047FEE7FEE7FEE7FEE7FEE7FEE79B
:10027000FEE7FEE7FEE7FEE76D0F000889010008D4
:100280002DE9F05F0546002092469B4688460646CB
:10029000814640241BE0284641464746224600F05E
:1002A00053F853465A46C01A914110D31146184686
:1002B000224600F03AF82D1A67EB01084F46224615
:1002C0000120002100F031F817EB00094E41201EFB
:1002D000A4F10104DFDC484631462A464346BDE826
:1002E000F09F40EA01039B0703D009E008C9121FF1
:1002F00008C0042AFAD203E011F8013B00F8013BE0
:10030000521EF9D27047D2B201E000F8012B491E0B
:10031000FBD270470022F6E710B513460A460446A2
:100320001946FFF7F0FF204610BD202A04DB203AD3
:1003300000FA02F1002070479140C2F1200320FA38
:1003400003F3194390407047202A04DB203A21FA36
:1003500002F00021704721FA02F3D040C2F12002DE
:100360009140084319467047064C074D06E0E06887
:1003700040F0010394E8070098471034AC42F6D3EC
:10038000FFF706FFC01B0008E01B0008FEE77047F0
:100390002DE9F84F00224FF0010803254FF00F0E12
:1003A0000B6808FA02F42340A3426ED14E68012E76
:1003B00005D0022E03D0112E01D0122E12D1866844
:1003C0004FEA420C05FA0CF7BE43CF6807FA0CF768
:1003D000374387604668A6430C79C4F30014944001
:1003E00034434460C668570005FA07FC8C6826EA67
:1003F0000C06BC403443C4604C68022C01D0122C63
:1004000013D1D40800EB8404A346D4F820905407F9
:100410004FEAD46A0EFA0AF629EA06090E6906FAC4
:100420000AF646EA0906CBF8206006680C7926EA47
:100430000C0604F00304BC40344304604C68E40040
:1004400065D5364C266846F480462660246822F03E
:10045000030604F480440094314C3444A446D4F898
:1004600008489607370F0EFA07F6B4432D4EB042F0
:1004700001D1002624E02C4EB04201D101261FE01C
:100480002A4EB04202D102261AE040E0284EB04285
:1004900001D1032614E0274EB04201D104260FE01B
:1004A000254EB04201D105260AE0244EB04201D1CA
:1004B000062605E0224EB04201D1072600E00826BC
:1004C000BE402643CCF808681E4E34684F689C43F3
:1004D000FF0300D51C4334601A4C241D26684F6866
:1004E0009E43BF0300D51E432660164E083634686F
:1004F0004F689C43FF0200D51C433460114E0C36FC
:1005000034684F689C43BF0200D51C433460521CC2
:10051000102AFFF445AFBDE8F88F000044380240D0
:100520000030014000000240000402400008024088
:10053000000C02400010024000140240001802406B
:10054000001C0240003C01400AB18161704709046F
:10055000FBE70000014880687047000008000020A9
:1005600002488168027811448160704708000020C9
:100570000B4810B5016841F400710160016841F455
:1005800080610160016841F480710160032000F026
:1005900089F8002000F006F800F03EF8002010BDB9
:1005A000003C024010B5014688B00022192000F03E
:1005B00059F8192000F048F813480024016841F068
:1005C00001010160006805A900F00100069068467D
:1005D00000F014F900F032F90C490D4AB0FBF1F1CA
:1005E0000C48491E026040F2E732C0E90324C0E92A
:1005F000011400F013FB10B1012008B010BD054834
:1006000000F028FBF9E700004438024040420F00A8
:1006100000000140CC0200200A4808B5016841F4FE
:1006200080410160006800F4804000900548001F90
:10063000016841F080510160006800F08050009036
:1006400008BD000044380240002809DB00F01F020A
:10065000012191404009800000F1E020C0F8001124
:1006600070470000F0B40E4B1B680C46C3F3022326
:10067000C3F10705042D00D90425191D072901D24E
:10068000002300E0DB1E012606FA05F1491E214089
:1006900099409E40761E16403143F0BC00F0DFBC0E
:1006A0000CED00E0064900F0070208684FF6FF0372
:1006B000184040EA0220034A1043086070470000D7
:1006C0000CED00E00000FA052DE9F0470E460500AC
:1006D00065D0DFF81481D8F80000F7B200F00F0001
:1006E000B04207D288F80070D8F8000000F00F0080
:1006F000B04254D128683D4C810712D5400703D53C
:10070000206840F4E05020602878000703D5206876
:1007100040F4604020602068A96820F0F0000843A1
:1007200020602878C0072DD0304968680839012832
:1007300012D0022813D0032811D009688907002994
:100740002DDA216821F0030101432160FFF702FF48
:10075000814641F2883A0EE009688903EFE70968AB
:100760008901ECE7FFF7F6FEA0EB0901514502D93C
:100770000320BDE8F0872068696800F00C00B0EB4A
:10078000810FEFD1D8F80010404601F00F01B142BF
:1007900007D90770006800F00F00B04201D00120B7
:1007A000E7E72878400705D52068E96820F4E0509D
:1007B000084320602878000706D52068296920F4BE
:1007C000604040EAC100206000F048F82168084A13
:1007D000C1F30311515CC84006490860064800682F
:1007E000FFF7E0FE0020C4E7003C0240083802406A
:1007F000901B0008140000200C0000200F22026053
:100800000C4A136803F003034360136803F0F0031A
:100810008360136803F4E053C36012684FF4E0533D
:1008200003EAD20202610448006800F00F00086089
:100830007047000008380240003C02400448054967
:1008400000680968044AC1F34231515CC8407047EE
:100850001400002008380240A01B0008154810B5FD
:10086000006810F00C02144813D04110042A0FD075
:10087000082A0ED10F4C241F2268236802F03F0281
:100880005B0207D52068C0F38810A0FB010106E0D9
:10089000084610BD2168C1F38811A1FB00010023A7
:1008A000FFF7EEFC2168C1F30141491C4900B0FB90
:1008B000F1F010BD083802400024F4002DE9F84F93
:1008C00004006ED02078DFF83C93C007A9F104053E
:1008D0004AD009F104000168C1F38101012908D05F
:1008E0000068C0F3810002280AD1D9F80000400254
:1008F00006D52868800337D560680028E1D033E04A
:100900006068B0F5803F10D0B0F5A02F286810D0F7
:1009100020F480302860286820F4802028606068F7
:10092000A8B1FFF717FE06460DE0286840F48030B6
:10093000F4E740F480202860F7E700BFFFF70AFEE5
:10094000801B642873D828688003F7D50CE0FFF774
:1009500001FE064605E000BFFFF7FCFD801B642892
:10096000F0D828688003F7D42078DFF89C828007CD
:100970004FF0000A3ED5A348001D016811F00C0F8E
:1009800008D00068C0F3810002280BD1D9F800001C
:10099000400207D42868800716D5E068012800D1F6
:1009A00012E02BE1E068B8B10120C8F80000FFF7C1
:1009B000D1FD064605E000BFFFF7CCFD801B0228F5
:1009C000C0D828688007F7D52868216920F0F8008A
:1009D00040EAC10028600DE0C8F800A0FFF7BAFDAA
:1009E000064604E0FFF7B6FD801B02281FD82868E2
:1009F0008007F7D42078000722D5824E83486169AA
:100A0000703671B101210160FFF7A4FD074604E0D3
:100A1000FFF7A0FDC01B022809D830688007F7D572
:100A20000EE0C0F800A0FFF795FD074605E082E064
:100A3000FFF790FDC01B02287DD830688007F7D4EF
:100A40002078400768D5DFF8BCB100270BF13C0BDC
:100A5000DBF80000C0000BD4DBF8001041F080513F
:100A6000CBF80010DBF80000012700F08050009068
:100A7000674E3068C00510D4306840F48070306034
:100A8000FFF768FD009005E0FFF764FD0099401A4C
:100A9000022850D83068C005F6D55A4EA0686C368A
:100AA00001280FD00528306810D020F001003060F8
:100AB000306820F004003060A068B8B1FFF74AFD4C
:100AC00000900FE0306840F00100F4E740F00400CF
:100AD0003060F7E7FFF73EFD0099411A41F2883098
:100AE000814266D830688007F4D50EE0FFF732FD0A
:100AF000009007E0FFF72EFD0099411A41F288307F
:100B0000814256D830688007F4D42FB1DBF800104A
:100B100021F08051CBF80010A069C8B33949091DF4
:100B20000968C1F3810102294AD00228504607D042
:100B3000C8F8600000E03CE0FFF70CFD04463BE035
:100B40004746C8F86000FFF705FD064605E000BF10
:100B5000FFF700FD801B02282BD828688001F7D4FE
:100B6000D4E907010843A16A2A4A490802EB014176
:100B7000626A41EA8211084394F82C1040EA01614C
:100B8000C9F8001001203866FFF7E4FC044606E0CF
:100B900036E000BFFFF7DEFC001B022809D82868FA
:100BA0008001F7D52CE000BFFFF7D4FC001B022822
:100BB00002D90320BDE8F88F28688001F4D41FE033
:100BC0000128F7D0D9F80000E26900F480019142D1
:100BD00014D1226A00F03F0191420FD147F6C07153
:100BE000626A0140914209D1A26A00F44031914207
:100BF00004D1E16A00F07060884201D00120D9E799
:100C00000020D7E70438024000004742800E4742E8
:100C1000007000400000FFFF7047704710B50400EF
:100C200003D094F83D0010B107E0012010BD002072
:100C300084F83C00204600F00CF8022084F83D00C7
:100C4000211D206800F0A6F9012084F83D00002055
:100C500010BD70470168CA6842F00102CA600068AE
:100C6000816801F00701062903D0016841F0010104
:100C7000016000207047704770B504460068016944
:100C80004FF00005C943890715D4C168C9438907D6
:100C900011D4E91E01610120207720688069800756
:100CA000204602D0FFF7E7FF04E000F098F8204666
:100CB00000F096F8257720680169C943490717D4E1
:100CC000C168C943490713D46FF0040101610220D0
:100CD00020772068806910F4407F204602D0FFF71B
:100CE000CAFF04E000F07BF8204600F079F8257791
:100CF00020680169C943090716D4C168C9430907B7
:100D000012D46FF008010161042020772068C069C7
:100D10008007204602D0FFF7AEFF04E000F05FF846
:100D2000204600F05DF8257720680169C943C906AF
:100D300017D4C168C943C90613D46FF0100101610B
:100D4000082020772068C06910F4407F204602D038
:100D5000FFF791FF04E000F042F8204600F040F871
:100D6000257720680169C943C90708D1C168C9430B
:100D7000C90704D1891E0161204600F033F82068BC
:100D80000169C943090609D4C168C943090605D4E4
:100D90006FF0800101612046FFF73EFF2068016986
:100DA000C943490609D4C168C943490605D46FF04F
:100DB00040010161204600F01FF820680169C94325
:100DC00089060BD4C168C943890607D46FF0200196
:100DD00001612046BDE87040FFF71FBF70BD70473E
:100DE0007047000000680349884201D1FFF7B8BB93
:100DF00070470000000001407047FEE710B58EB05C
:100E00001C220B496846FFF76CFA0021684600F087
:100E100062F9084C06491C2220601C3107A8FFF724
:100E200060FA002107A800F056F960600EB010BD0E
:100E3000581B00080000002030B587B01421684618
:100E4000FFF768FA1648016841F020010160016867
:100E500001F020010591016841F080010160016805
:100E600001F080010591016841F001010160006815
:100E70000C4D00F001004FF4C064059000222146A3
:100E80002846FFF761FB01210220CDE90210CDE9E0
:100E9000004169462846FFF77BFA07B030BD0000E5
:100EA0003038024000140240FEE77047012000F095
:100EB00006F9FBE7012000F002F9FBE710B550202E
:100EC00080F31188BFF34F8FBFF36F8F00F07EFD6B
:100ED00018B104494FF080500860002080F3118859
:100EE00010BD000004ED00E030B593B0302168463D
:100EF000FFF710FA14210CA8FFF70CFA1948002587
:100F0000016841F080510160006800F0805011904C
:100F10001548016841F4804101600068022400F432
:100F20008040119001200090000401908001CDE9E3
:100F30000640082008904FF4A870CDE90904042069
:100F40000B906846FFF7BAFC0F20CDE90C04802017
:100F50000E904001CDE90F0502210CA8FFF7B4FB6C
:100F600013B030BD403802400070004005480168B1
:100F700041F47001016003494FF00060803908605E
:100F80007047000088ED00E00148FFF775BE0000E3
:100F9000CC020020F0B50268254C264D264E274F86
:100FA000274B4FF0804CA04209D0604507D0A842A3
:100FB00005D0B04203D0B84201D0984204D122F00B
:100FC000700E4A6842EA0E02A0421BD0604519D05A
:100FD000A84217D0B04215D0B84213D0984211D0D1
:100FE000184DA8420ED0184DA8420BD0174DA8425C
:100FF00008D0174DA84205D0164DA84202D0164D74
:10100000A84203D122F44075CA682A434D6922F0F0
:1010100080022A4302608A68C2620A688262A04231
:1010200001D0984201D10969016301214161F0BDFC
:10103000000001400004004000080040000C004097
:1010400000040140004001400044014000480140CC
:1010500000180040001C004000200040FEE7090787
:10106000090E002804DB00F1E02080F8001470472E
:1010700000F00F0000F1E02080F8141D704702E03E
:1010800008C8121F08C1002AFAD170477047002013
:1010900001E001C1121F002AFBD17047FFF768FA77
:1010A000FFF722FFFFF7C8FEFFF7A8FE00F00EF8DB
:1010B000FEE701460020842900D0C81C704710B507
:1010C00000B9012000F01EFB002010BD10B500F09B
:1010D0003FFB002010BD7FB50D4604464169B0F9C5
:1010E000080081B1A16971B1FFF7E3FFD4E90512EE
:1010F0008DE80700D4E900102B46226900F03BFC84
:10110000039004B070BDFFF7D4FF03A9CDE900013F
:10111000208A2B4682B2D4E9001000F0FFFB0128A0
:1011200001D00020EDE70398EBE700002DE9F04146
:10113000184C0F46054666692068001D00F01EFA2F
:1011400038B9206890F82C1001208840A1698143AB
:10115000A161681C07D137B12168BDE8F0410E4894
:10116000091D00F04FBA20683544B542456021683A
:1011700005D2A068BDE8F041091D00F02BBA6068F7
:10118000091D00F027FA206B854200D22563BDE8D7
:10119000F081000018000020E80300202DE9F04154
:1011A000054600F03BFA2E4C2069401C2061206867
:1011B0002C4F10B1E06940B32DE025602069012873
:1011C00029D1002606EB860007EB800000F0F4F939
:1011D000761C072EF6D323488C3000F0EDF9214819
:1011E000A03000F0E9F91F48B43000F0E5F91D48DF
:1011F000C83000F0E1F91B48DC3000F0DDF9194897
:101200008C3060601430A06005E02068E96AC06A34
:10121000884200D82560E06A401CE062E96A01204B
:10122000A26988401043A06101EB810007EB8000B8
:10123000291D00F0E7F900F011FAE06900280CD050
:101240002068E96AC06A884207D207494FF0805097
:101250000860BFF34F8FBFF36F8FBDE8F0810000D0
:10126000180000200C03002004ED00E010B5044637
:1012700090F8510058B101280CD002280FD050200E
:1012800080F31188BFF34F8FBFF36F8FFEE7206BA2
:1012900000F0F8F92046BDE8104000F0F3B910BDA9
:1012A00010484FF47051420706D0C01D0D4920F080
:1012B0000700411AC1F570510B4A00230144C2E9ED
:1012C00000030839103A21F0070111604B600B60F0
:1012D0000B1AC0E9001393604FF000405360D060D8
:1012E00070470000FC03002064000020144E154CE1
:1012F000A6F1C8074FF08058DFF84C9012E000BF0D
:1013000000F08CF9F068C568281D00F037F92069F5
:10131000401E2061E068401EE06000F09FF9284612
:10132000FFF7A4FFE0680028EAD138680128F9D95E
:10133000C9F80080BFF34F8FBFF36F8FF2E7000053
:10134000D40300201800002004ED00E02DE9F04750
:101350009A46DDE9098481466FF00303206B03EBB5
:1013600082021044089E20F00707780707D050201B
:1013700080F31188BFF34F8FBFF36F8FFEE7002517
:1013800061B1002023180A5C83F834200A5C12B192
:10139000401C1028F6D384F8435001E084F8345000
:1013A000072E00D30626E662C4E91165201D00F071
:1013B0000EF904F1180000F00AF92461C6F10700E3
:1013C0006462A061E56484F850505246494638464C
:1013D00000F0BEF82060B8F1000F01D0C8F800405E
:1013E000BDE8F08730B5114900E011460A68824235
:1013F000FBD34B685C18844203D1406818444860B2
:10140000084643681C18944209D1084C103C2468D3
:10141000A24209D052681A4442600A681268026007
:10142000814200D0086030BD0460F9E7640000200C
:1014300006484168096829B14168C968C9684968AE
:10144000016370474FF0FF31FAE7000018000020F9
:1014500008484068401C4FF0500080F3118804D0C9
:10146000BFF34F8FBFF36F8FFEE7BFF34F8FBFF315
:101470006F8FFEE76C0000202DE9F0410546002744
:1014800000F09CF9314E306808B9FFF709FFF068A9
:1014900005424BD1C5B3083568070ED005F00700EB
:1014A000C0F108000544680707D0502080F3118878
:1014B000BFF34F8FBFF36F8FFEE72DB37068854288
:1014C00034D82248103001460C6801E020460C4612
:1014D0006168A94202D221680029F7D131688C42A3
:1014E00024D007682168016060680837411B102913
:1014F0000FD96019420708D0502080F31188BFF33C
:101500004F8FBFF36F8FFEE710E041606560FFF71C
:1015100069FF61687068401A7060B268904200D2DA
:10152000B060F06801430020C4E9000100F0B2FAA5
:10153000780707D0502080F31188BFF34F8FBFF397
:101540006F8FFEE73846BDE8F081000054000020B0
:1015500010B5031F4FF080741C601B1F21F00101A8
:101560001960191F044B0B6014390A60091F6FF0D2
:10157000020244380A6010BD51140008D0E901325B
:1015800001699A60D0E901235A604A68824201D118
:1015900082684A60002202610868401E086008688C
:1015A00070470000034B036003F154000860802083
:1015B000106070477800002000F108014FF0FF3202
:1015C000C0E90112C1600161002101607047002182
:1015D0000161704730B50B685A1C02D000F1080257
:1015E00002E0026904E02246546825689D42FAD967
:1015F00053684B6099608A60516008610168491CBA
:10160000016030BD42684A6093688B60936859609E
:10161000916008610168491C01607047502080F3A7
:101620001188BFF34F8FBFF36F8F0A494868401C82
:10163000486001280CD10848006810F0FF0F07D05F
:10164000502080F31188BFF34F8FBFF36F8FFEE7F9
:10165000704700006C00002004ED00E00849486875
:1016600028B1401E486001D180F311887047502096
:1016700080F31188BFF34F8FBFF36F8FFEE7000039
:101680006C00002070B5002827D0144DA0F108048C
:101690006168E868014207D1502080F31188BFF3E8
:1016A0004F8FBFF36F8FFEE722683AB1502080F36F
:1016B0001188BFF34F8FBFF36F8FFEE781436160E7
:1016C00000F07CF860686968084468602046FFF7AD
:1016D00089FEBDE8704000F0DDB970BD5400002007
:1016E0004FF0E02000210161816105494FF47A72D9
:1016F0000968B1FBF2F1491E4161072101617047A0
:101700001400002010B5020014D00F48806B38B1CF
:10171000502080F31188BFF34F8FBFF36F8FFEE728
:1017200000F04CF800211046FFF700FD00F0B2F980
:10173000002807D105494FF080500860BFF34F8F54
:10174000BFF36F8F10BD00001800002004ED00E013
:1017500010B586B00024039405AA04A903A8049434
:10176000FFF720FFDDE903010094CDE9011000231C
:101770000EA11048059A00F0FEF80F4900284863B2
:1017800011D0502080F31188BFF34F8FBFF36F8FBC
:101790004FF0FF3008630120C8614C6106B0BDE81E
:1017A000104000F041B806B010BD000049444C455F
:1017B00000000000ED120008180000200248816BB4
:1017C000491C816370470000180000201448816B99
:1017D00011B1012141627047002141628169B1FA72
:1017E00081F1C1F11F0101EB81020E4951F8223054
:1017F0006BB101EB820101F108034A6852684A604B
:101800009A4201D152684A60D16801607047502005
:1018100080F31188BFF34F8FBFF36F8FFEE7000097
:10182000180000200C0300201CB537480168374A17
:10183000914207D1502080F31188BFF34F8FBFF33F
:101840006F8FFEE700683149491E884207D150205A
:1018500080F31188BFF34F8FBFF36F8FFEE72C49E2
:1018600008780190FF20087008788DF800009DF836
:1018700000009DF8002000F0F000904207D05020BA
:1018800080F31188BFF34F8FBFF36F8FFEE79DF892
:101890000000204B00F0500018700720986005E011
:1018A0009DF8002052008DF80020401E9DF8002079
:1018B0001206F5D49860032807D0502080F31188D1
:1018C000BFF34F8FBFF36F8FFEE74FF44070986008
:1018D000019808700C482030016841F470010160E3
:1018E000016841F070410160FFF7FAFE0020586086
:1018F000FEF778FC0848016841F040410160FEF7BE
:101900005DFC00201CBD000000ED00E071C20F4135
:1019100000E400E06C00002034EF00E02DE9FF5F00
:101920008346DDE90E87994616468A469000FFF702
:10193000A3FD05001CD05420FFF79EFD040014D029
:101940000020256384F85100CDE90240CDE90087ED
:101950004B46324651465846FFF7F8FC2046FFF703
:101960001DFC012004B0BDE8F09F2846FFF78AFE69
:101970004FF0FF30F6E7F0B585B0DDE90B640A9D66
:10198000A6B1DCB1542700972663022684F8516083
:10199000002604AFCDE90246CDE90057FFF7D6FC9B
:1019A0002046FFF7FBFB049805B0F0BD502080F304
:1019B0001188BFF34F8FBFF36F8FFEE7502080F386
:1019C0001188BFF34F8FBFF36F8FFEE72DE9F04112
:1019D0002E4C0027A06B40B1206A401C2062606A38
:1019E00000B101273846BDE8F0816669761C666162
:1019F00013D16068006838B1502080F31188BFF3BC
:101A00004F8FBFF36F8FFEE76068A1686160A060D1
:101A1000A06A401CA062FFF70BFD206BDFF870800E
:101A2000864209D36068006880B16068C068C56894
:101A3000686886420DD220632068C06A00EB80018E
:101A400058F821000128CAD90127C8E74FF0FF3014
:101A5000F1E7281DFFF792FDA86A18B105F11800FB
:101A6000FFF78CFDE86A0121A26981401143A16161
:101A700000EB800108EB8100291DFFF7C3FDE86A38
:101A80002168C96A8842CDD30127CBE7180000201E
:101A90000C0300202DE9F0472C4D00242746A86BAD
:101AA00038B1FFF7BBFDA86B401EA863A86B40B11F
:101AB00046E0502080F31188BFF34F8FBFF36F8F44
:101AC000FEE72969224E0120D1B3A6F1B409804670
:101AD0003068E8B1F068C46804F11800FFF74EFD03
:101AE000201DFFF74BFDE06AAA6908FA00F11143D7
:101AF000A96100EB800109EB8100211DFFF782FD48
:101B0000E06A2968C96A8842E2D3C5F82480DFE721
:101B10000CB1FFF78DFC2C6A44B14646FFF756FF27
:101B200000B16E62641EF9D100202862686A38B183
:101B30000849012738070860BFF34F8FBFF36F8F45
:101B4000FFF78CFD3846BDE8F08700001800002044
:101B5000C003002004ED00E0B41B0008AD0E000837
:101B600000000000000000008000000000000000F5
:101B700000000000A81B0008B50E000800000000CF
:101B800000000000800000000000000000000000D5
:101B9000000000000000000001020304060708091D
:101BA00000000000010203046D795461736B303250
:101BB0000000000064656661756C745461736B00AD
:101BC000E01B000800000020780000007E100008E4
:101BD000581C000878000020884300008E10000880
:101BE00000000000000000000100000010000000E4
:101BF000000000000024F4000000000000000000CD
:101C000000000000000000000000000000000000D4
:101C100000000000000000000000000000000000C4
:101C200000000000000000000000000000000000B4
:101C300000000000000000000000000000000000A4
:101C40000000000000000000000000000000000094
:081C5000AAAAAAAA00000000E4
:040000050800018965
:00000001FF
