:020000040800F2
:10000000785F0020E9020008B30F0008310E0008F5
:10001000B10F000867060008651300080000000023
:10002000000000000000000000000000290200089D
:10003000690600080000000085020008FD120008A3
:100040000303000803030008030300080303000878
:100050000303000803030008030300080303000868
:100060000303000803030008030300080303000858
:100070000303000803030008030300080303000848
:100080000303000803030008030300080303000838
:100090000303000803030008030300086B060008BD
:1000A0000303000803030008030300080303000818
:1000B0000303000803030008030300080303000808
:1000C00003030008030300080303000803030008F8
:1000D00003030008030300080303000803030008E8
:1000E00003030008030300080303000803030008D8
:1000F00003030008030300080303000803030008C8
:1001000003030008030300080303000803030008B7
:1001100003030008030300080303000803030008A7
:100120000303000803030008030300080303000897
:100130000303000803030008030300080303000887
:100140000303000803030008030300080303000877
:100150000303000803030008030300080303000867
:100160000303000803030008030300080303000857
:100170000303000803030008030300080000000055
:10018000030300080303000800F002F800F03CF845
:100190000AA090E8000C82448344AAF10107DA45E2
:1001A00001D100F031F8AFF2090EBAE80F0013F0F8
:1001B000010F18BFFB1A43F0010318471436000063
:1001C00034360000103A24BF78C878C1FAD85207F4
:1001D00024BF30C830C144BF04680C6070470000C1
:1001E0000023002400250026103A28BF78C1FBD840
:1001F000520728BF30C148BF0B6070471FB503F0DE
:10020000D1FA1FBD10B510BD00F0F4F91146FFF78B
:10021000F5FF01F0FBFE00F012FA03B4FFF7F2FF66
:1002200003BC00F019FA00002C4B19680868B0E80C
:10023000F04F80F30988BFF36F8F4FF0000080F319
:10024000118870470000000008480068006880F3CB
:1002500008884FF0000080F3148862B661B6BFF3DF
:100260004F8FBFF36F8F00DF00BF00BF08ED00E0CE
:10027000DFF80C00016841F470010160704700BFB5
:1002800088ED00E0EFF30980BFF36F8F134B1A681E
:100290001EF0100F08BF20ED108A20E9F04F10600B
:1002A00009B44FF0500080F31188BFF34F8FBFF3B4
:1002B0006F8F02F0FBFD4FF0000080F3118809BC46
:1002C00019680868B0E8F04F1EF0100F08BFB0ECD6
:1002D000108A80F30988BFF36F8F704758000020A1
:1002E000EFF3058070470000094880470948004740
:1002F000FEE7FEE7FEE7FEE7FEE7FEE7FEE7FEE7D6
:10030000FEE7FEE704480549054A064B7047000032
:10031000111300088901000878590020785F002037
:10032000785B0020785B002053EA020C00F06980C3
:100330002DE9F04B4FF00006002B1FBFB3FA83F5F9
:1003400003FA05F424FA05F65E4012BF1643B2FA2A
:1003500082F502FA05F4C5F120051EBF22FA05FC5C
:1003600044EA0C04203556EA044C4FEA144418BF02
:10037000641C4FF000084FF00009904271EB030C31
:1003800039D3002919BFB1FA81F701FA07F6B0FA9B
:1003900080F700FA07F6C7F120071EBF20FA07FC16
:1003A00046EA0C062037B6FBF4FCA7EB0507103F26
:1003B00007F01F0BCBF120060CFA0BFB2CFA06F60C
:1003C00044BFB3460026202FA4BF5E464FF0000B6B
:1003D0005BEA060C08BF4FF0010B19EB0B09ABFBF6
:1003E000027C48EB0608C01B06FB02CC0BFB03CCCF
:1003F00071EB0C01C1E70B46024641464846BDE899
:10040000F08B13B54FF000004FF00001AFF3008008
:10041000BDE81C40704740EA0103024630B59B0727
:1004200010D14FF0013400E008C208C91D1B9D43E4
:1004300015EAC41FF8D013F0FF0102F8011B0DD01C
:100440001B0AF8E711F8013B002B02F8013B05D02D
:1004500011F8013B002B02F8013BF3D130BD032A18
:1004600040F2308010F0030C00F0158011F8013BD1
:10047000BCF1020F624498BF11F801CB00F8013BB8
:1004800038BF11F8013BA2F1040298BF00F801CB7C
:1004900038BF00F8013B11F0030300F03080083A48
:1004A000C0F0088051F8043B083A51F804CBA0E8AA
:1004B0000810F5E7121D5CBF51F8043B40F8043BFF
:1004C000AFF30080D20724BF11F8013B11F801CB34
:1004D00048BF11F8012B24BF00F8013B00F801CB05
:1004E00048BF00F8012B704702F0FF0343EA0322E4
:1004F00042EA024200F037B870477047704710B5C3
:10050000203AC0F00B80B1E81850203AA0E818500B
:10051000B1E81850A0E81850BFF4F5AF5FEA027CCC
:1005200024BFB1E81850A0E8185044BF18C918C03B
:10053000BDE810405FEA827C24BF51F8043B40F8DC
:10054000043B08BF7047D20728BF31F8023B48BFC1
:1005500011F8012B28BF20F8023B48BF00F8012BFF
:1005600070474FF000020429C0F0128010F0030C15
:1005700000F01B80CCF1040CBCF1020F18BF00F896
:10058000012BA8BF20F8022BA1EB0C0100F00DB845
:100590005FEAC17C24BF00F8012B00F8012B48BFA3
:1005A00000F8012B70474FF0000200B51346944647
:1005B0009646203922BFA0E80C50A0E80C50B1F1BB
:1005C0002001BFF4F7AF090728BFA0E80C5048BFCF
:1005D0000CC05DF804EB890028BF40F8042B08BF6D
:1005E000704748BF20F8022B11F0804F18BF00F869
:1005F000012B7047754600F02BF8AE4605006946A2
:10060000534620F00700854618B020B5FFF77AFE64
:10061000BDE820404FF000064FF000074FF0000803
:100620004FF0000B21F00701AC46ACE8C009ACE884
:10063000C009ACE8C009ACE8C0098D46704710B5E8
:100640000446AFF300802046BDE81040FFF7E5BD4B
:10065000004870471459002001491820ABBEFEE73E
:10066000260002007047FEE77047402000F002B805
:1006700070470000044910B50A68024202D00860C1
:10068000FFF7F6FF10BD0000143C01402DE9F84FC4
:10069000DFF88C91002209F1040A0AF1040B4FF0F3
:1006A0000F080BF1040E01260B6896403340B3424D
:1006B00071D14C68022C01D0122C11D1D40800EB5E
:1006C00084073D6A5407E40E08FA04FC25EA0C0589
:1006D000D1F810C00CFA04FC4CEA050CC7F820C095
:1006E00007685400032591F804C0A5400CF0030CE2
:1006F000AF430CFA04FC4CEA070CC0F800C04F688A
:10070000012F05D0022F03D0112F01D0122F11D1AC
:100710008768D1F80CC0AF430CFA04FC4CEA070C14
:10072000C0F808C04768B7430E79C6F30016964074
:100730003E434660C668AE438D68A5403543C560FC
:100740004C68E40065D5374C256845F48045256044
:10075000246822F0030504F480440094324C2E19DE
:10076000D6F808789407250F08FA05F4A7432F4C0C
:10077000A04201D1002424E02D4CA04201D101244B
:100780001FE02C4CA04201D102241AE02A4CA042C6
:1007900002D1032415E03CE0284CA04201D10424FE
:1007A0000FE0274CA04201D105240AE0254CA042CD
:1007B00001D1062405E0244CA04201D1072400E029
:1007C0000824AC403C43C6F80848D9F800404D46E0
:1007D0004E689C43F60300D51C432C60DAF80040B9
:1007E00055464E689C43B60300D51C432C60DBF88D
:1007F00000405D464E689C43F60200D51C432C60C9
:10080000DEF8004075464E689C43B60200D51C4396
:100810002C60521C102AFFF446AFBDE8F88F000090
:10082000003C0140443802400030014000000240DA
:100830000004024000080240000C02400010024088
:100840000014024000180240001C024000690840E9
:1008500000D0012070470AB1816170470904FBE7AD
:1008600001480068000C7047002004E001488068DF
:100870007047000018000020094810B5016841F4D5
:1008800000710160016841F480610160052000F0A1
:100890004BF80F2000F006F800F024F8002010BDFF
:1008A000003C024070B50D4D04464FF47A71287833
:1008B000B1FBF0F00A490968B1FBF0F000F0A4FACE
:1008C00048B9102C07D200222146501E00F00CF827
:1008D00000206C6070BD012070BD00001800002079
:1008E0001400002070470000F0B40E4B1B68C3F3E7
:1008F0000223C3F10704042C00D904241D1D072D75
:1009000001D2002300E0DB1E012606FA04F56D1E6D
:100910000D409D409E40761E164045EA0601F0BC03
:1009200000F097BE0CED00E0064A00F007011068E9
:100930004FF6FF03184040EA0120034908431060C6
:10094000704700000CED00E00000FA052DE9F047CB
:100950000D46040065D0DFF81491D9F80000EFB21D
:1009600000F00F00A84207D289F80070D9F8000003
:1009700000F00F00A84254D120683D4E810712D5E7
:10098000400703D5306840F4E0503060207800071D
:1009900003D5306840F4604030603068A16820F0D2
:1009A000F000084330602078C0072DD030496068DF
:1009B0000839012812D0022813D0032811D0096861
:1009C000890700292DDA316821F0030101433160E4
:1009D000FFF74CFF804641F2883A0EE00968890330
:1009E000EFE709688901ECE7FFF740FFA0EB08019A
:1009F000514502D90320BDE8F0873068616800F0F6
:100A00000C00B0EB810FEFD1D9F80010484601F08F
:100A10000F01A94207D90770006800F00F00A84233
:100A200001D00120E7E72078400705D53068E1686C
:100A300020F4E050084330602078000706D5306885
:100A4000216920F4604040EAC100306000F016F8EF
:100A50003168084AC1F30311515CC8400649086077
:100A60000F20FFF71FFF0020C5E70000003C0240F9
:100A700008380240AE37000814000020154810B5B1
:100A8000006810F00C01144813D0431004290FD053
:100A900008290ED10F4C241F216801F03F02216864
:100AA000490207D52068C0F38810A0FB030106E0C7
:100AB000184610BD2168C1F38811A1FB0001002375
:100AC000FFF732FC2168C1F30141491C4900B0FB2A
:100AD000F1F010BD083802400024F4002DE9F84F71
:100AE000040073D02078BD4DC00748D0BB48083003
:100AF0000168C1F38101012908D00068C0F38100B9
:100B000002280AD1281D0068400206D52868800303
:100B100035D560680028E4D031E06068B0F5803FEA
:100B200010D0B0F5A02F286810D020F480302860B5
:100B3000286820F4802028606068A0B1FFF796FE46
:100B400006460CE0286840F48030F4E740F480204A
:100B50002860F7E7FFF78AFE801B642872D82868B0
:100B60008003F7D50BE0FFF781FE064604E0FFF7B0
:100B70007DFE801B6428F1D828688003F7D4207894
:100B8000DFF85C9280074FF0000A3ED593480830AA
:100B9000016811F00C0F09D00068C0F38100022831
:100BA0000BD18E48001D0068400206D428688007DB
:100BB00015D5E068012809D111E0E068B8B101203D
:100BC000C9F80000FFF752FE064605E003E1FFF713
:100BD0004DFE801B0228C1D828688007F7D52868F9
:100BE000216920F0F80040EAC10028600DE0C9F852
:100BF00000A0FFF73BFE064604E0FFF737FE801B30
:100C000002281FD828688007F7D42078000722D54B
:100C1000724F74496069743770B101200860FFF742
:100C200025FE064604E0FFF721FE801B022809D8B6
:100C300038688007F7D50EE0C1F800A0FFF716FE70
:100C4000064605E081E0FFF711FE801B02287CD8F4
:100C500038688007F7D42078400769D5DFF87CB181
:100C60004FF000080BF1400BDBF80000C0000CD483
:100C7000DBF8001041F08051CBF80010DBF80000E9
:100C80004FF0010800F080500090574F3868C005C1
:100C90000FD4386840F480703860FFF7E7FD0646EF
:100CA00004E0FFF7E3FD801B02284ED83868C0053A
:100CB000F7D54A4FA068703701280FD0052838684B
:100CC00010D020F001003860386820F0040038604F
:100CD000A068B0B1FFF7CAFD06460EE0386840F0E4
:100CE0000100F4E740F004003860F7E7FFF7BEFDCD
:100CF000811B41F28830814265D838688007F5D57C
:100D00000DE0FFF7B3FD064606E0FFF7AFFD811BE0
:100D100041F28830814256D838688007F5D4B8F15E
:100D2000000F05D0DBF8001021F08051CBF8001047
:100D3000A069C8B3294908310968C1F381010229B2
:100D400049D00228504607D000E03CE0C9F86000D6
:100D5000FFF78CFD044639E04F46C9F86000FFF705
:100D600085FD064604E0FFF781FD801B02282AD896
:100D700028688001F7D4D4E907010843A16A1B4A17
:100D8000490802EB0141626A41EA8211084394F882
:100D90002C1040EA01611148001D016001203866F5
:100DA000FFF764FD044605E013E0FFF75FFD001B5D
:100DB000022808D828688001F7D50AE0FFF756FD19
:100DC000001B022802D90320BDE8F88F28688001A3
:100DD000F4D40020F8E70120F6E7000000380240D4
:100DE00000004742800E4742007000400000FFFFB5
:100DF0004FF0E0210428086903D020F004000861C6
:100E0000704740F00400FAE710B5401EB0F1807F53
:100E100001D3012010BD4FF0E02460610F21601765
:100E200000F017FC0020A06107202061002010BD09
:100E3000FEE7000070B5144886B00025016841F057
:100E400001010160016801F001010591016841F0B3
:100E5000100101600068032400F0100005900220DA
:100E60000126CDE90204CDE9006569460748FFF790
:100E70000DFC1C2003948DE8610069460448FFF7CF
:100E800005FC06B070BD0000303802400000024092
:100E9000001002402DE9F04101262E4C2E4F2F4D1F
:100EA00001281DD02078A0B110212846FFF7CEFCE4
:100EB000C0B108212846FFF7C9FC98B10421284693
:100EC000FFF7C4FC70B101213846FFF7BFFC0128D1
:100ED00008D010212846FFF7B9FC012826D037E0BA
:100EE0002670E1E70A2000F0E1FB002020701021CD
:100EF0002846FFF7ABFC80B108212846FFF7A6FC87
:100F000070B104212846FFF7A1FC58B101213846F1
:100F1000FFF79CFC012807D01AE00120BDE8F08112
:100F20000220FBE70320F9E70420F7E70821284621
:100F3000FFF78CFC01280BD104212846FFF786FC23
:100F4000012805D101213846FFF780FC00B9267041
:100F50000020E3E7280000200000024000100240CB
:100F6000114810B5016886B041F0200101600068A9
:100F70000E4C00F0200005904FF4C060009001205E
:100F8000019002900320039069462046FFF77EFB04
:100F9000012251022046FFF75EFC01229102204609
:100FA000FFF759FC06B010BD303802400014024073
:100FB000FEE770472DE9F84304461F48007808B95A
:100FC00000F0D2F9FF2000258DF800004FF0FF3926
:100FD000102C2DD21948184E005D8DF801001836DE
:100FE000EFF31187202080F31188307DDFF84C80EB
:100FF00000F00300A8F1010802280CD0304600F0F0
:10100000E7F902280FD388F80040022269463046EB
:1010100000F0FEFA08E088F80040022269463046F7
:1010200000F0C9FA00E04D46F8B280F3118800E004
:101030004D462846BDE8F8835C540020AD000020F2
:101040002DE9F04107460B4815460E46007808B9D1
:1010500000F08AF9EFF31184202080F311882A46EA
:101060003146384600F008F8E1B281F31188BDE856
:10107000F08100005C54002070B50E46144900EB6E
:10108000400001EBC0051446E86A183520B101287C
:101090000FD0022805D113E0284600F099F9A042AC
:1010A00001D2002411E022463146284600F0B0FA71
:1010B0000BE0284600F08CF9A042F4D20446F2E797
:1010C0003146284600F077FA0446204670BD0000FD
:1010D0005C5400200FB408B504A900916A46039936
:1010E00000F003F801B05DF814FB2DE9F04198B071
:1010F000804607A8029040200026CDE90306CDE9EE
:10110000056815460C4614F8011B00296FD02529E7
:1011100008D002A800F030FA05980028F3DA18B0D9
:10112000BDE8F08100200122217823291ED02B293F
:1011300019D02D2902D0302908D102E040F0010059
:1011400001E040F00200641C002AEDD10022217869
:10115000A1F130030A2B0CD202EB820201EB420216
:10116000303A641CF3E740F00400ECE740F008007C
:10117000E9E70023CFB22E2F0BD114F8011FA1F104
:1011800030070A2F05D203EB830301EB4303303B07
:10119000F3E76C290DD068290BD070294AD00BDCFD
:1011A000252914D058292BD063290CD0642911D1BA
:1011B00012E014F8011FECE773292CD0752917D021
:1011C000782907D11CE02868011D2960017802A850
:1011D00000F0D2F9641C9FE729680F1D2F60096891
:1011E000CDE900200A2202A800F0FDF8F2E72BE08A
:1011F00029680F1D2F600968CDE900200A2206E04A
:1012000029680F1D2F600968CDE90020102202A86F
:1012100000F04CF9DEE72868011D2960076817F81F
:10122000011B0029D6D002A800F0A6F905980028D5
:10123000F5DACFE72868011D296001680820CDE9AB
:10124000000603461022E2E7059800287FF767AF03
:10125000049820B1024607A94046FFF7F1FEDDE9F8
:101260000410084405905AE770B5214C92B000254F
:10127000266846F080562660246804F08054119455
:101280001C4C266846F48046266024680DF1200C2C
:1012900004F48044119401240094240401948CE803
:1012A0000F0002246605CDE906466846FFF716FCE6
:1012B00000B1FEE70CA90F2081E831004FF4A050E7
:1012C0000F904FF48050109005210CA8FFF73EFBC3
:1012D00000B1FEE7FFF7C4FA41F20101884204D1F0
:1012E0000548016841F48071016012B070BD0000D2
:1012F0004038024000700040003C024010B502F04F
:1013000023F8012803D0BDE8104001F077BE10BDDE
:101310001048016841F4700101600F48016841F014
:10132000010101600C4A00210832116002680B4B78
:101330001A400260031D0A4A1A60026822F48022E1
:10134000026005480C300160024958068039086087
:101350007047000088ED00E000380240FFFFF6FE15
:1013600010300024FEE7000010B5124C03200021CD
:101370002061606110A0A06104F1A800E0614FF459
:101380008060A162206261620BA0E162206604F5C8
:101390009560606610202167C4E91A01616709A1A0
:1013A000E01DFFF738F808A12046FFF734F82020A9
:1013B000A07110BD5C5400205465726D696E616C43
:1013C0000000000052545400534547474552000066
:1013D0000269C1688A4203D88068401A104400E05C
:1013E000501A401E70472DE9FC5F0E008046DDE973
:1013F0000C47C6F1000099469246834600D4084641
:10140000012502E090FBFAF06D1C5045FADAA9457F
:1014100000D94D4624B1002E01DB780700D5641EAB
:10142000B80702D5B9F1000F0FD0F8070DD164B19C
:10143000A5420AD220214046641E00F09DF8D8F84B
:101440000C000028F3DABDE8FC9FD8F80C00002857
:10145000F9DB002E02DA5E462D2102E0780707D57F
:101460002B21404600F088F8D8F80C000028EADB71
:1014700007F0030002280FD1B9F1000F0CD15CB1C5
:10148000A54209D230214046641E00F075F8D8F814
:101490000C000028F3DAD6E7CDE900474B46524668
:1014A0003146404600F002F8CDE700002DE9F84F44
:1014B0008246DDE90A4B01259946174688460846CB
:1014C0002E4602E0B0FBF7F0761CB842FAD2B145E6
:1014D00000D94E465FEACB7017D1B4B15FEA8B708A
:1014E00002D5B9F1000F02D0202000900BE030208F
:1014F000FBE75046641E009900F03EF8DAF80C0055
:10150000002835DB0CB1A642F3D3DAF80C00002832
:101510002EDBB9F1010F02D9A9F1010903E0B8FBF3
:10152000F5F0B84201D37D43F3E7DFF84890B8FB0C
:10153000F5F000FB158819F80010504600F01CF873
:10154000DAF80C00002803DBB5FBF7F5002DEED12F
:101550005FEACB700CD0002C0AD0A64208D2202122
:101560005046641E00F008F8DAF80C000028F2DAA1
:10157000BDE8F88FBE37000810B50446D4E9013045
:10158000421C934205D323681954A260E068401CB2
:10159000E060D4E90102824209D121682069FFF7A5
:1015A0004FFDA168884203D04FF0FF30E06010BDCE
:1015B0000020A06010BD2DE9F047C4681746894699
:1015C00005464FF000082869A04201D9061B02E039
:1015D000A968201A0E1AA868761E001BB04200D80F
:1015E0000646BE4200D33E4668683246204449461D
:1015F000FEF735FFA868BF1B3444B044B144A04295
:1016000000D10024EC60002FDDD14046BDE8F0871A
:101610002DE9F04104468846D4E90207C51BE1687C
:10162000606816460844B54206D94146FEF717FFE2
:10163000B819E060BDE8F0812A464146FEF70FFF89
:10164000761B08EB050132466068FEF708FFE6608E
:10165000F0E70907090E002804DB00F1E02080F81C
:101660000014704700F00F0000F1E02080F8141D16
:101670007047000010B504460420FFF7B9FB0A4884
:101680004FF47A71047014FB01F1012242804FF093
:10169000E020026942F0020202614161016941F009
:1016A0000101016110BD00002400002070B5044656
:1016B00001F04AFE01280CD0094D6888844203D30A
:1016C000B4FBF0F001F0E8FA6888B4FBF0F100FB3D
:1016D00011444FF47A706043BDE8704000F002B8E6
:1016E0002400002070B54FF0E02500216C69094A04
:1016F000AB6912785043AA699A42FCD002D2A3EB9C
:10170000020302E0A4EB020633441944134681426B
:10171000F1D370BD2400002070B5124C102120467A
:10172000FFF794F8054608212046FFF78FF80E4E84
:101730000446707808B91DB114B1012D0CD00FE02A
:101740000A20FFF7B3FF012070700DB114B107E05C
:10175000012070BD022070BD012C01D100207070ED
:10176000002070BD0010024000000020724801F00F
:10177000A0F97148143001F0A7F96F48283001F042
:10178000A3F96D483C3001F09FF96B4D28201435CA
:1017900005F1140728603C20386005F12806322046
:1017A00030600120FFF706FC64A10020FFF792FCE7
:1017B00071A10020FFF78EFC5F4A7CA10020FFF79B
:1017C00089FC5D4C85A100206268FFF783FC04F171
:1017D00008028EA10020FFF77DFC2A4697A1002079
:1017E000FFF778FC3A46A1A10020FFF773FC3246D0
:1017F000AAA10020FFF76EFCB4A10020FFF76AFC4D
:10180000C1A10020FFF766FC02E00A20FFF74EFFAF
:101810000020FFF73FFB0428F7D147494648143121
:1018200001F055F9BEA10020FFF754FC52A10020A1
:10183000FFF750FCC9A10020E268FFF74BFCD3A1E1
:1018400000206A68FFF746FCDCA10020FFF742FC9D
:10185000E9A100202269FFF73DFCF3A10020AA685E
:10186000FFF738FC99A10020FFF734FCA6A1002067
:10187000FFF730FC02E00A20FFF718FF0020FFF717
:1018800009FB0428F7D12C492B48283101F01FF916
:10189000F1A10020FFF71EFC37A10020FFF71AFC82
:1018A000AEA10020E268FFF715FCB8A100206A682D
:1018B000FFF710FCF7A100207A68FFF70BFCBFA12F
:1018C0000020FFF707FCCCA100202269FFF702FCF3
:1018D000D5A10020AA68FFF7FDFBFAA10020BA6895
:1018E000FFF7F8FB79A10020FFF7F4FB86A10020A9
:1018F000FFF7F0FB02E00A20FFF7D8FE0020FFF719
:10190000C9FA0428F7D10C490B483C3101F0DFF843
:10191000F8A10020FFF7DEFB17A10020FFF7DAFB9C
:101920008EA10020E268FFF7D5FB98A100206A682D
:10193000FFF7D0FBFEA113E2C00000202F2A2A2AC5
:101940002A2A2A2A2A2A2A2A2A2A2A2A2A2A2A2AF7
:10195000C1D0B1EDBACDC1D0B1EDCFEEB5D8D6B7CB
:101960002A2A2A2A2A2A2A2A2A2A2A2A2A2A2A2AD7
:101970002A2A2A2F0D0A0000CFEEC4BF20202020E3
:101980002020202020202020202020202020202057
:1019900020202020202020202020B5D8D6B70909DB
:1019A0000909202020200D0A0000000054657374EE
:1019B0004C6973742020202020202020202020200B
:1019C00020202020202020202020202020203078AF
:1019D00025237809090909090D0A00005465737463
:1019E0004C6973742D3E7078496E646578202020B0
:1019F000202020202020202020202020202030787F
:101A000025237809090909090D0A00005465737432
:101A10004C6973742D3E784C697374456E64202054
:101A2000202020202020202020202020202030784E
:101A300025237809090909090D0A00004C69737406
:101A40004974656D31202020202020202020202076
:101A5000202020202020202020202020202030781E
:101A600025237809090909090D0A00004C697374D6
:101A70004974656D32202020202020202020202045
:101A800020202020202020202020202020203078EE
:101A900025237809090909090D0A00004C697374A6
:101AA0004974656D33202020202020202020202014
:101AB00020202020202020202020202020203078BE
:101AC00025237809090909090D0A00002F2A2A2A65
:101AD0002A2A2A2A2A2A2A2A2A2A2A2A2A2A2A2A66
:101AE0002A2A2A2A2ABDE1CAF82A2A2A2A2A2A2A9E
:101AF0002A2A2A2A2A2A2A2A2A2A2A2A2A2A2A2A46
:101B00002A2A2A2F0D0A0000B0B4CFC24B45595FD4
:101B10005550BCFCBCCCD0F8210D0A0D0A0D0A00B2
:101B20002F2A2A2A2A2A2A2A2A2A2A2A2A2A2A2A10
:101B30002A2A2ACCEDBCD3C1D0B1EDCFEE4C6973CB
:101B4000744974656D312A2A2A2A2A2A2A2A2A2ABD
:101B50002A2A2A2A2A2A2A2F0D0A00005465737479
:101B60004C6973742D3E784C697374456E642D3ED8
:101B700070784E6578742020202020202020307836
:101B800025237809090909090D0A00004C697374B5
:101B90004974656D312D3E70784E65787420202033
:101BA00020202020202020202020202020203078CD
:101BB00025237809090909090D0A00002F2A2A2A74
:101BC0002A2A2A2A2A2A2A2A2A2A2A2A2A2A2A2A75
:101BD000C7B0BAF3CFF2C1ACBDD3B7D6B8EECFDF42
:101BE0002A2A2A2A2A2A2A2A2A2A2A2A2A2A2A2A55
:101BF0002A2A2A2A2F0D0A00546573744C697374BB
:101C00002D3E784C697374456E642D3E7078507229
:101C10006576696F75732020202030782523780938
:101C2000090909090D0A00004C6973744974656D4E
:101C3000312D3E707850726576696F757320202063
:101C400020202020202020202020307825237809E3
:101C5000090909090D0A00002F2A2A2A2A2A2A2AF4
:101C60002A2A2A2A2A2A2A2A2A2A2ACCEDBCD3C19D
:101C7000D0B1EDCFEE4C6973744974656D322A2A88
:101C80002A2A2A2A2A2A2A2A2A2A2A2A2A2A2A2FAF
:101C90000D0A00004C6973744974656D322D3E70F5
:101CA000784E6578742020202020202020202020BD
:101CB00020202020202030782523780909090909CF
:101CC0000D0A00004C6973744974656D322D3E70C5
:101CD0007850726576696F7573202020202020204F
:101CE000202020202020307825237809090909099F
:101CF0000D0A00002F2A2A2A2A2A2A2A2A2A2A2AD0
:101D00002A2A2A2A2A2A2ACCEDBCD3C1D0B1EDCF67
:101D1000EE4C6973744974656D332A2A2A2A2A2A7B
:101D20002A2A2A2A2A2A2A2A2A2A2A2F0D0A00009F
:101D30004C6973744974656D332D3E70784E6578C7
:101D4000742020202020202020202020202020203F
:101D50002020307825237809090909090D0A000097
:101D600000207268FFF7B6F9AFF2D80100207A6858
:101D7000FFF7B0F9AFF2BC110020FFF7ABF9AFF2FB
:101D8000881100202269FFF7A5F9AFF26411002045
:101D9000AA68FFF79FF961A10020B268FFF79AF9DE
:101DA000AFF2E0010020BA68FFF794F9AFF2E42146
:101DB0000020FFF78FF9AFF2B0210020FFF78AF97A
:101DC00002E00A20FFF772FC0020FFF763F8042806
:101DD000F7D15E4800F05AFE5DA10020FFF77AF9C6
:101DE000AFF26C410020FFF775F9AFF290210020AF
:101DF000E268FFF76FF9AFF26C2100206A68FFF725
:101E000069F9AFF2D40100207268FFF763F9AFF20D
:101E100054210020FFF75EF9AFF22421002022694F
:101E2000FFF758F9AFF200210020AA68FFF752F936
:101E30003AA10020B268FFF74DF9AFF270310020EF
:101E4000FFF748F9AFF240310020FFF743F902E015
:101E50000A20FFF72BFC0020FFF71CF80428F7D11D
:101E600060683A4940686060A1F1280000F047FED0
:101E700046A10020FFF72EF9AFF204510020FFF732
:101E800029F9AFF2A84100206268FFF723F9AFF209
:101E900034310020E268FFF71DF9AFF2082100207D
:101EA0007A68FFF717F9AFF21C3100206A68FFF774
:101EB00011F9AFF2841100207268FFF70BF9AFF24D
:101EC00004310020FFF706F9AFF2D4210020226987
:101ED000FFF700F9AFF214210020BA68FFF7FAF813
:101EE000AFF2BC210020AA68FFF7F4F80BA1002094
:101EF000B268FFF7EFF834A10020FFF7EBF8424C8F
:101F00004FF47A75D4F8A80230B10021C4F8A812B1
:101F1000284600F0C1FEF5E70121F7E74C6973742C
:101F20004974656D332D3E707850726576696F75B2
:101F300073202020202020202020202020203078E6
:101F400025237809090909090D0A0000E800002085
:101F50002F2A2A2A2A2A2A2A2A2A2A2A2A2A2A2ADC
:101F60002A2A2AC9BEB3FDC1D0B1EDCFEE4C6973A8
:101F7000744974656D322A2A2A2A2A2A2A2A2A2A88
:101F80002A2A2A2A2A2A2A2F0D0A00002F2A2A2A38
:101F90002A2A2A2A2A2A2A2A2A2A2A2AD4DAC4A92E
:101FA000CEB2CCEDBCD3C1D0B1EDCFEE4C697374E1
:101FB0004974656D322A2A2A2A2A2A2A2A2A2A2A92
:101FC0002A2A2A2A2F0D0A002F2A2A2A2A2A2A2ACE
:101FD0002A2A2A2A2A2A2A2A2A2A2A2A2A2A2A2A61
:101FE0002ABDE1CAF82A2A2A2A2A2A2A2A2A2A2A99
:101FF0002A2A2A2A2A2A2A2A2A2A2A2A2A2A2A2F3C
:102000000D0A0D0A0D0A0000008042421CB5FEF7C1
:1020100033FC072302224FF4A8710820FFF724F9AC
:10202000A820FFF727FBFEF705FFFEF799FF0649FB
:102030000120CDE900010023802204A1064801F01F
:1020400057F900F0F3FEFEE704000020737461729C
:10205000745F7461736B0000452900082DE9F0413D
:102060001E4D0F460446EE682868001D00F00EFD68
:1020700038B9286890F82C100120884029698143DC
:102080002961601C15D1A7B115492A68486890607C
:102090002B688268DA602A688368121D5A602A6891
:1020A000121D8260286841610868401C0860BDE814
:1020B000F08128683444B4424460296805D2E86B52
:1020C000BDE8F041091D00F002BDA86B091D00F03C
:1020D000FEFCA86A8442EAD2AC62E8E7580000201D
:1020E000205400202DE9F041044600F015FD354E46
:1020F000B068401CB0603068334F10B1706930B3C5
:102100002BE03460B068012827D1002505EB85005D
:1021100007EB800000F0CDFC6D1C202DF6D32B4882
:1021200000F0C7FC2948143000F0C3FC27482830D1
:1021300000F0BFFC25483C3000F0BBFC2348503089
:1021400000F0B7FC2148B0631430F06305E030685C
:10215000E16AC06A884200D83460706A0121401C7C
:1021600070626064E06A326981401143316100EB62
:10217000800007EB80004068A0608168E1608268B1
:10218000211D51608160E06A00EB800007EB800157
:10219000616157F82010491C47F8201000F0DCFC62
:1021A000706900280CD03068E16AC06A884207D2A2
:1021B00007494FF080500860BFF34F8FBFF36F8F18
:1021C000BDE8F0815800002050510020D05300207D
:1021D00004ED00E010B500F09FFC0E4C2068A0B9A3
:1021E0000D4800F066FC0C48143000F062FC0A4810
:1021F000E0601430206100220C210A2000F014FF5E
:10220000206010B105A100F0FFFCBDE8104000F017
:10221000A3BC00009800002034540020546D72517B
:102220000000000030B4026C0B46002A0BD0C168DD
:102230001144C1608468A14201D30168C16030BC0F
:102240001846FEF70CB930BC70472DE9F041856B9C
:10225000174604460026026C82B1C7B1E068FEF75B
:10226000FEF8E168206C091AE1602268914202D20E
:10227000A168081AE060022F16D017E02068A8B9FC
:10228000A06801F009F906460020A0600EE0606831
:10229000FEF7E5F8216C606808446060A168884238
:1022A00004D32068606001E005B16D1E6D1CA5635C
:1022B0003046BDE8F08110B50446006B00F060FCCC
:1022C0002046BDE8104000F05BBC000010484FF411
:1022D000A041420706D0C01D0D4920F00700411A59
:1022E000C1F5A0410B4A00230144C2E900030839AB
:1022F000183A21F0070111604B600B600B1AC0E91E
:10230000001393604FF0004053605061704700002D
:102310001001002050000020134E144DA6F52F7719
:102320004FF08058DFF8489011E000F0F5FBF068BE
:10233000C468201D00F0AAFBA868401EA860686859
:10234000401E686000F008FC2046FFF7B4FF686894
:102350000028EAD138680128F9D9C9F80080BFF30C
:102360004F8FBFF36F8FF2E70C540020580000200E
:1023700004ED00E02DE9F05F0D46DDE90B94174612
:10238000834691009A460A9EA522206BFEF7ACF880
:102390006FF00301206B01EB8701084420F0070771
:1023A000780707D0502080F31188BFF34F8FBFF319
:1023B0006F8FFEE74FF0000865B100202218295CFE
:1023C00082F83410295C11B1401C1028F6D384F82F
:1023D000438001E084F83480202E07D3502080F31E
:1023E0001188BFF34F8FBFF36F8FFEE7E662C4E93A
:1023F0001368201D00F068FB04F1180000F064FB76
:102400002461C6F120006462A061C4F8548084F89D
:10241000588052465946384600F07EFA2060B9F19D
:10242000000F01D0C9F80040BDE8F09F30B5114958
:1024300000E011460A688242FBD34B685C18844274
:1024400003D1406818444860084643681C18944209
:1024500009D1084C183C2468A24209D052681A4499
:1024600042600A6812680260814200D0086030BD94
:102470000460F9E75000002070B5002441600B4D66
:102480000061914206D8D11A8269914206D2011D9B
:10249000286907E09A4203D2994201D3012403E05C
:1024A000011DE86800F013FB204670BD9800002075
:1024B00010B5044600F030FBA06B20B1002400F002
:1024C0004BFB204610BD0124F9E7F1B5002600982A
:1024D000846C5CB1A16BE06B81420FD3502080F320
:1024E0001188BFF34F8FBFF36F8FFEE7502080F34B
:1024F0001188BFF34F8FBFF36F8FFEE7A16B81424F
:102500000ED294F94550002269462046FFF79DFE01
:102510000646681C06D07F2D0FD06D1C84F84550F0
:102520003046F8BD606A0028FAD004F1240001F0BA
:102530000FF80028F4D00126F2E7502080F311882C
:10254000BFF34F8FBFF36F8FFEE7000070B50646F5
:102550000D480D46C068C068C468201D00F096FA9A
:1025600094F82800410705D52A463146204600F058
:10257000B5F803E020F0010084F828002046216A25
:10258000BDE8704008470000980000207FB5374E36
:1025900063E00098002860DB029C606910B1201D98
:1025A00000F074FA03A800F0BBF8054600980A286A
:1025B00053D2DFE800F0520505282E460505282EE7
:1025C00094F828002A4640F0010084F82800019879
:1025D000A169034601442046FFF74EFF40B394F83B
:1025E0002800410707D50198A1692A4601442046E1
:1025F00000F074F803E020F0010084F82800216A5C
:102600002046884729E014F8280F20F001002070A8
:1026100023E094F8280040F0010084F82800019895
:10262000A06130B141192B461A462046FFF724FF1E
:1026300013E0502080F31188BFF34F8FBFF36F8FEB
:10264000FEE794F82800810703D4204600F098FAAA
:1026500003E020F0010084F8280000226946306879
:1026600000F06CFD002894D17FBD00009800002090
:10267000F8B50D46064600F011FC684600F050F82B
:102680000446009810B100F0D1FFF8BD1148ADB17B
:1026900001690968D9B10025311B2A46006800F09C
:1026A000D9FA00F0C3FF0028EFD10B494FF080505A
:1026B0000860BFF34F8FBFF36F8FF8BDA642EBD812
:1026C00000F0B4FF21463046FFF740FFF8BD01257A
:1026D000E2E700009800002004ED00E070B5164627
:1026E0000C46054604E0A869296A04442846884740
:1026F000A8692346011932462846FFF7BDFE002887
:10270000F1D170BD0548816B096821B1816BC96841
:102710000968816270474FF0FF31FAE758000020E6
:102720002DE9F041064600F01DFE0E4D0446A86856
:10273000844214D24FF0FF3704E0C0683946006885
:10274000FFF704FFE86801680029F6D12969C5E9A7
:102750000310012030602046AC60BDE8F08100200D
:10276000F8E700009800002008484068401C4FF03F
:10277000500080F3118804D0BFF34F8FBFF36F8FE9
:10278000FEE7BFF34F8FBFF36F8FFEE72C000020F3
:10279000084CE068016839B1002139B10020FFF729
:1027A00067FFFFF7F3FEF4E70121F6E7C068006872
:1027B000F5E70000980000202DE9F041044600F004
:1027C000ABF994F9455004F124060FE0A06C18B160
:1027D0002046FFF77AFE04E0606A48B1304600F018
:1027E000B7FE08B100F0DCFA6D1E6DB2002DEDDC15
:1027F0004FF0FF3684F8456000F0AEF900F08CF938
:1028000094F9445004F1100709E0206948B13846B2
:1028100000F09EFE08B100F0C3FA6D1E6DB2002DEF
:10282000F3DC84F84460BDE8F04100F095B90000A5
:102830002DE9F0410446002600F030FB354F3868A2
:1028400008B9FFF743FD7869044254D1F4B304F1A9
:102850000805A5424FD9680711D005F00700C0F15F
:1028600008002844A84246D90546400707D0502012
:1028700080F31188BFF34F8FBFF36F8FFEE72DB347
:102880007868854237D8234918310846046801E042
:10289000214604466068A84202D220680028F7D189
:1028A0003868844227D00E6820680860606808365F
:1028B000411B10290FD96019420708D0502080F31E
:1028C0001188BFF34F8FBFF36F8FFEE713E04160B6
:1028D0006560FFF7ABFD61687868401A7860BA6898
:1028E000904200D2B860786901430020C4E9000139
:1028F000F868401CF86000F099FE700707D050207F
:1029000080F31188BFF34F8FBFF36F8FFEE7304620
:10291000BDE8F0813800002010B5031F4FF080742F
:102920001C601B1F21F001011960191F044B0B6073
:1029300014390A60091F6FF0020244380A6010BDA2
:10294000692700081CB500F0E7F814490220CDE91A
:1029500000010023802212A1144800F0C9FC0F4896
:102960000324001DCDE900400023802210A113485C
:1029700000F0BEFC094800230830CDE90040802269
:102980000FA1124800F0B4FC04480838406800F079
:10299000A9F9BDE81C4000F0DFB8000008000020E5
:1029A0007461736B315F7461736B0000D12900082F
:1029B0007461736B325F7461736B0000E52900080A
:1029C0006C6973745F7461736B0000006D170008AD
:1029D000034CFEF7A1FE2070C82000F05DF9F8E777
:1029E0000000002001251F4CDFF87C804FF40077A9
:1029F00000264FF480692078012802D0022817D0E1
:102A00002CE01AA10020FEF765FBA07810B1012888
:102A100007D023E0012239464046FDF71CFFA57090
:102A20001CE0002239464046FDF715FFA67015E070
:102A300012A10020FEF74EFBE07810B1012807D06C
:102A40000CE0012249464046FDF705FFE57005E030
:102A5000002249464046FDF7FEFEE670C82000F021
:102A60001BF9C8E700000020001402406B3120B1C0
:102A7000BBB0B4CFC2C1CB0D0A0000006B3220B195
:102A8000BBB0B4CFC2C1CB0D0A000000D0E9013207
:102A900001699A60D0E901235A604A68824201D1F3
:102AA00082684A60002202610868401E0860086867
:102AB000704700F108014FF0FF32C0E90112C16018
:102AC000016100210160704700210161704730B54C
:102AD0000C68621C02D000F1080202E0026904E006
:102AE0001A4653681D68A542FAD953684B6099602D
:102AF0008A60516008610168491C016030BD42680C
:102B00004A6093688B6093685960916008610168BE
:102B1000491C016070470000502080F31188BFF30A
:102B20004F8FBFF36F8F0A494868401C48600128E7
:102B30000CD10848006810F0FF0F07D0502080F338
:102B40001188BFF34F8FBFF36F8FFEE77047000010
:102B50002C00002004ED00E00849486828B1401E20
:102B6000486001D180F311887047502080F31188AC
:102B7000BFF34F8FBFF36F8FFEE700002C000020E4
:102B800070B500282AD0164DA0F108046068696964
:102B9000084207D1502080F31188BFF34F8FBFF355
:102BA0006F8FFEE722683AB1502080F31188BFF39F
:102BB0004F8FBFF36F8FFEE78843606000F06EF9C0
:102BC00060686968084468602046FFF72FFC286940
:102BD000401C2861BDE8704000F028BD70BD0000B9
:102BE000380000204FF0E02000210161816105499B
:102BF0004FF47A720968B1FBF2F1491E4161072175
:102C0000016170471400002070B560B100230029F5
:102C10001DD00F4D002205EBC204666886420AD122
:102C200005EBC2030FE0502080F31188BFF34F8FF4
:102C3000BFF36F8FFEE71BB955F8326006B9234624
:102C4000521C082AE7D3002B01D0C3E9001070BD45
:102C50001051002070B515460E460446FFF75CFF84
:102C600094F944100020491C01D184F8440094F9DF
:102C70004510491C01D184F84500FFF76DFFA06B9A
:102C800028B92A46314604F1240000F0A7F820466E
:102C9000BDE87040FFF790BD10B5020014D00F489A
:102CA000406B38B1502080F31188BFF34F8FBFF3D2
:102CB0006F8FFEE700F0F2F800211046FFF7CEF923
:102CC00000F0B4FC002807D105494FF0805008609F
:102CD000BFF34F8FBFF36F8F10BD0000580000206F
:102CE00004ED00E070B50446FFF716FF244D04B96B
:102CF0002C68201DFFF7CAFE58B9E06A214A00EB94
:102D0000800152F8211021B90121814028698843AE
:102D10002861A06A18B104F11800FFF7B7FE686ACD
:102D2000401C68622868844207D1211D1648FFF7BD
:102D3000E6FE6868401C686007E0A868401EA8605E
:102D40002046FFF7B8FAFFF7DDFCFFF705FF6869DB
:102D5000002814D02868844211D1686B38B1502003
:102D600080F31188BFF34F8FBFF36F8FFEE70749E2
:102D70004FF080500860BFF34F8FBFF36F8F70BD6F
:102D800058000020505100200C54002004ED00E0B9
:102D900002490A6A0260C968416070475800002011
:102DA00001490120C86170475800002010B50C4649
:102DB00050B1094909681831FFF789FE2046BDE87E
:102DC00010400121FFF74AB9502080F31188BFF36A
:102DD0004F8FBFF36F8FFEE758000020F0B40C4612
:102DE000D0B1114B41681D68E9618D681E6835627C
:102DF0001D688E68183575601D6818358D601968F6
:102E000088620168491C01600AB14FF0FF34204616
:102E1000F0BC1146FFF722B9502080F31188BFF3B0
:102E20004F8FBFF36F8FFEE7580000207CB5174827
:102E30000025CDE900502B46822215A1164800F04E
:102E400057FA124C2C3C012803D100F085FC0128D4
:102E500002D0401C11D00EE0502080F31188BFF347
:102E60004F8FBFF36F8F4FF0FF30A0620120606182
:102E7000E56000F049F8206B7CBD502080F311889C
:102E8000BFF34F8FBFF36F8FFEE700008400002079
:102E900049444C4500000000192300080248416BDA
:102EA000491C41637047000058000020144A506BD1
:102EB00010B10120D06170470020D0611069114924
:102EC000B0FA80F0C0F11F0000EB800051F8203014
:102ED0006BB101EB800000F1080341684968416073
:102EE000994201D149684160C8681060704750201C
:102EF00080F31188BFF34F8FBFF36F8FFEE70000A1
:102F000058000020505100201CB537480168374A4E
:102F1000914207D1502080F31188BFF34F8FBFF348
:102F20006F8FFEE700683149491E884207D1502063
:102F300080F31188BFF34F8FBFF36F8FFEE72C49EB
:102F400008780190FF20087008788DF800009DF83F
:102F500000009DF8002000F0F000904207D05020C3
:102F600080F31188BFF34F8FBFF36F8FFEE79DF89B
:102F70000000204C00F0500020700720A06006E008
:102F8000401EA0609DF8000040008DF800009DF8F4
:102F900000000006A068F3D4032807D0502080F377
:102FA0001188BFF34F8FBFF36F8FFEE74FF4407070
:102FB000A060019808700C482030016841F470014D
:102FC0000160016841F070410160FFF70BFE0020D5
:102FD0006060FDF74DF90848016841F0404101602B
:102FE000FDF732F900201CBD00ED00E071C20F4179
:102FF00000E400E02C00002034EF00E010B5502089
:1030000080F31188BFF34F8FBFF36F8F00F0B0F9DB
:1030100018B104494FF080500860002080F31188F7
:1030200010BD000004ED00E02DE9F04117460E460A
:10303000050022D04FF0FF30B0FBF5F0B0421CD3BA
:1030400005FB06F010F1550F17D85430FFF7F0FBD1
:1030500004000ED004F154006EB12060C4E90F5694
:103060002046012100F012F884F85070002120461B
:10307000A164BDE8F0812460F0E7502080F311885E
:10308000BFF34F8FBFF36F8FFEE700002DE9F041D4
:103090000E4604004FF001052CD0E06B90B3AF1E3C
:1030A000B7FBF0F1206C81423DD3FFF735FDD4E949
:1030B0000F20216802FB0011A1600021A16321689B
:1030C00061600A46D4E90F01401E00FB0121204641
:1030D000E16000F8447F477004F110009EB1FFF7F3
:1030E000E8FC04F12400FFF7E4FCFFF735FD284677
:1030F000BDE8F081502080F31188BFF34F8FBFF3FC
:103100006F8FFEE70FE021690029EED000F020FA72
:103110000028EAD008494FF080500860BFF34F8F75
:10312000BFF36F8FE1E7502080F31188BFF34F8F1B
:10313000BFF36F8FFEE7000004ED00E02DE9F747D5
:1031400083B08A4604004FF0000603D0BAF1000FA6
:1031500008D011E0502080F31188BFF34F8FBFF3E8
:103160006F8FFEE7206C38B1502080F31188BFF3D9
:103170004F8FBFF36F8FFEE700F0E6F8DFF8F090B7
:1031800000274FF0805848B9059838B1502080F397
:103190001188BFF34F8FBFF36F8FFEE7FFF7BCFCC3
:1031A000A56BC5B151462046FFF73CF86D1EA563DF
:1031B000206950B104F1100000F0CAF928B1C9F833
:1031C0000080BFF34F8FBFF36F8FFFF7C5FC012067
:1031D00006B0BDE8F087059808B11EB106E0FFF71C
:1031E000BBFC27E06846FFF7D3FD0126FFF7B4FCE0
:1031F000FFF754FEFFF790FC94F94400401C01D106
:1032000084F8447094F94500401C01D184F845705D
:10321000FFF7A2FC05A9684600F02CF8002820461C
:103220000AD0FFF7C9FA00F001FA2046FFF740F98B
:103230000028B3D00020CBE7FFF73AF990B104F1B2
:1032400024000599FFF7B2FD2046FFF7B5FA00F01C
:10325000EDF90028A2D1C9F80080BFF34F8FBFF36A
:103260006F8F9BE72046FFF7A7FA00F0DFF995E79D
:1032700004ED00E02DE9F0410C46050014D0DCB16E
:10328000FFF74AFC194EF1686B682268C81A571C90
:103290001AD02F68D6F820C00026674516D08B427A
:1032A00014D8012526601BE0502080F31188BFF35D
:1032B0004F8FBFF36F8FFEE7502080F31188BFF36D
:1032C0004F8FBFF36F8FFEE7002509E0824205D9DB
:1032D000101A20602846FFF75BFDF5E70125266000
:1032E000FFF73AFC2846BDE8F081000058000020B6
:1032F0002DE9FF5F8346DDE90E87994616468A462B
:103300009000FFF795FA05001AD05C20FFF790FABD
:10331000040012D025630021CDE90241CDE90087E8
:103320004B46324651465846FFF724F82046FEF7F2
:10333000D9FE012004B0BDE8F09F2846FFF720FC2D
:103340004FF0FF30F6E700000548416919B1406BC6
:1033500018B100207047012070470220704700001C
:10336000580000200148C068704700005800002045
:103370002DE9F041464E0025706B28B1B069401C24
:10338000B0612846BDE8F081F468641CF46013D194
:10339000B06B006838B1502080F31188BFF34F8FB5
:1033A000BFF36F8FFEE7B06BF16BB163F063306A10
:1033B000401C3062FFF7A6F9B06ADFF8D8E084421B
:1033C0000BD34FF0000CB06B0068A0B1B06BC068BD
:1033D000C1684868844211D2B0623068C06A00EBAC
:1033E00080005EF82000012800D90125F06900283E
:1033F000C7D00125C5E74FF0FF30EDE7D1E9023234
:1034000048699A60D1E902235A6043680A1D9342D1
:1034100001D1CB684360C1F814C003685B1E036030
:10342000886A88B1D1E907379F60D1E907377B60A7
:10343000476801F118039F4201D10B6A4360C1F84C
:1034400028C003685B1E0360C86A01233769834094
:103450003B43336100EB80000EEB800040688860E6
:103460008368CB6083685A608260C86A00EB800022
:103470000EEB80024A615EF82020521C4EF820209C
:10348000C86A3168C96A88429DD301259BE700005C
:10349000580000205051002070B504004FF000008B
:1034A00050D0294D29688C4207D0502080F31188D4
:1034B000BFF34F8FBFF36F8FFEE7216D69B1491ED8
:1034C0002165E36CE26A9A423CD000293AD1201D82
:1034D000FFF7DCFA012140B10EE0502080F31188A3
:1034E000BFF34F8FBFF36F8FFEE794F82C002A696C
:1034F00001FA00F082432A61E06CE062C0F1200032
:10350000A061E06A2A698140114329610F4A00EBFA
:10351000800002EB80004068A0608168E160836801
:10352000211D59608160E06A00EB800002EB8000A1
:103530006061E06A00EB800052F82010491C42F8FC
:103540002010012070BD00005800002050510020C4
:1035500070B5C068C06850B3D0E90732816A9A601C
:10356000D0E907235A604B6800F11802934201D159
:10357000036A4B60002585620B685B1E0B60284B5D
:10358000596B0124D9B1274D6968C1618E68066203
:103590008E6872608A6085622968491C2960C06AE9
:1035A0001968C96A884239D90120DC6170BD502090
:1035B00080F31188BFF34F8FBFF36F8FFEE7D0E921
:1035C00002624169B260D0E9022672604E68021D53
:1035D000964201D1C6684E6045610D686D1E0D6052
:1035E000C16A1E6904FA01F535431D610E4D01EBF8
:1035F000810105EB8101496881608E68C6608E6833
:1036000072608A60C16A01EB810105EB810242614F
:1036100055F82120521C45F82120C0E7002070BD3C
:1036200058000020F8530020505100202DE9F047A9
:10363000454D0024A146686B38B1FFF76DFA686B01
:10364000401E6863686B40B178E0502080F31188B9
:10365000BFF34F8FBFF36F8FFEE7A868DFF8ECC0B2
:1036600000264FF00108E8BB68E0DCF80C00C468F5
:10367000D4E90721A06A9160D4E907125160426839
:1036800004F118018A4201D1216A4160A6620168F1
:10369000491E0160D4E9022160699160D4E90212F7
:1036A00051604268211D8A4201D1E2684260666130
:1036B0000268521E0260E06A2F69434608FA00F26F
:1036C0003A432A61224A00EB800002EB8000406806
:1036D000A0608768E760876879608160E06A00EBD6
:1036E000800000E00DE002EB8001616152F82010E3
:1036F000491C42F82010E06A2968C96A884200D350
:10370000EB61DCF800000028AFD10CB1FEF7FAFF46
:10371000AC693CB14746FFF72BFE00B1EF61641E78
:10372000F9D1AE61E86948B10A494FF080504FF0D5
:1037300001090860BFF34F8FBFF36F8FFFF70CFADB
:103740004846BDE8F087000058000020F8530020EC
:103750005051002004ED00E01CB5FEF73BFD0D4884
:10376000006868B10B490220091DCDE90001002362
:103770004FF4827208A10A48FFF7BAFD002807D16A
:10378000502080F31188BFF34F8FBFF36F8FFEE798
:103790001CBD000098000020546D72205376630019
:1037A000912700084FF04070E1EE100A70470000CA
:1037B0000000000000000102030406070809303180
:1037C00032333435363738394142434445460000B8
:1037D000F037000800000020C0000000C40100080D
:1037E000B0380008C0000020B85E0000E00100080A
:1037F00000000000000000000000000000000000C9
:10380000000000000024F40001000000100000008F
:1038100000000000000000000100000000000000A7
:10382000AAAAAAAA000000000000000000000000F0
:103830000000000000000000000000000000000088
:103840000000000000000000000000000000000078
:103850000000000000000000000000000000000068
:103860000000000000000000000000000000000058
:1038700000000000000000001F0000000000000029
:103880000000000000000000000000000000000038
:103890000000000000000000000000000030313295
:1038A0003334353637383941424344454600000009
:040000050800018965
:00000001FF
