:030000000201FDFD
:0C01FD00787FE4F6D8FD75812E020244E4
:0404E400021C0000F6
:1003D200C2B31204D47521FF75220075230375245C
:1003E200017525F47526017527F47B007A007908DA
:1003F20012042A7521FF7522047523AE7524037534
:1004020025E87526037527E87B007A007912120425
:100412002A7B007A0079081202F97B007A007912AD
:080422001202F912036680FBCF
:03000300B2B32273
:1004AE00051DE51D7002051C640A451C7017F51C20
:1004BE00F51DD2B3FB7A0079081202897B007A000F
:0604CE00791212028922DE
:1004D400E4F589758CFC758A18D2AFD2A9D28C2226
:03000B0002046D7F
:10046D00C0E0C0F0C083C082C0D075D000C000C055
:10047D0001C002C003C004C005C006C007758CFCD6
:10048D00758A181204F2D007D006D005D004D00317
:10049D00D002D001D000D0D0D082D083D0F0D0E027
:0104AD00321C
:0904E800032C000000022A0000B0
:10042A008B1E8A1F8920AB21AA22A923C003C002DE
:10043A00C001AB1EAA1FA92090000412015CE52B83
:10044A002525FFE52A3524AB1EAA1FA9208FF01205
:10045A000071AB1EAA1FA920900002E5268527F08D
:03046A00020090FD
:0602F9008B1E8A1F892004
:1002FF00852C21852D22852E23E52245234521603E
:10030F0031E51E851F838520826521700AE52365EF
:10031F00827004E522658370057EFF7FFF22AB218B
:10032F00AA22A92390000712012C8B218A2289234C
:10033F0080C7AB2CAA2DA92EC003C002C001AB1ED3
:10034F00AA1FA92090000712015C851E2C851F2D66
:06035F0085202EE4FEFFE4
:010365002275
:060289008B218A2289236B
:10028F0075240075250075262CAB24AA25A92612E6
:07029F0000BDEA494B60526B
:1002A600AB24AA25A9261200BD8B278A288929E511
:1002B600218522838523826B7008E965827003EAB3
:1002C6006583701DAB27AA28A92990000712012C67
:1002D600C003C002C001AB24AA25A9261200DD80F6
:1002E600B1E5292407F9E43528852724F52589264B
:0202F60080A0E6
:0102F80022E3
:10036600852C1E852D1F852E20E51F4520451E60E8
:100376005AAB1EAA1FA92012000EFFC3E52B9FE54C
:100386002A95F04032900002120039FFAEF04E700E
:10039600051202898012AB1EAA1FA920E52B2FFF8A
:1003A600E52A3E8FF0120071AB1EAA1FA92090000D
:1003B6000412012C1201B5AB1EAA1FA9209000073A
:0B03C60012012C8B1E8A1F8920809ED4
:0103D1002209
:0904F200052BE52B7002052A22FE
:100209000203D2E493A3F8E493A34003F68001F236
:1002190008DFF48029E493A3F85407240CC8C333F6
:10022900C4540F4420C8834004F456800146F6DFC5
:10023900E4800B01020408102040809004E4E47E6D
:10024900019360BCA3FF543F30E509541FFEE493BA
:10025900A360010ECF54C025E060A840B8E493A381
:10026900FAE493A3F8E493A3C8C582C8CAC583CAAC
:10027900F0A3C8C582C8CAC583CADFE9DEE780BE64
:0104F100000A
:10000E00BB010A89828A83E0F5F0A3E022500687BD
:10001E00F009E71922BBFE07E3F5F009E31922897F
:0B002E00828A83E493F5F074019322B2
:10003900BB0110E58229F582E5833AF583E0F5F005
:10004900A3E0225009E92582F886F008E622BBFEE2
:100059000AE92582F8E2F5F008E222E5832AF58328
:08006900E993F5F0A3E99322ED
:10007100BB010A89828A83F0E5F0A3F0225006F7DA
:0F00810009A7F01922BBFE06F3E5F009F31922D7
:10009000F8BB0111E58229F582E5833AF583E8F0A2
:1000A000E5F0A3F0225009E92582C8F608A6F0225F
:0D00B000BBFE09E92582C8F2E5F008F22246
:1000BD00BB010789828A830201CD5005E9F802014F
:1000CD00BBBBFE05E9F80201DF89828A830201F1DB
:1000DD00BB011A89828A83D0F0D0E0F8D0E0F9D044
:1000ED00E0FAD0E0FBE8C0E0C0F00201D65016E91E
:1000FD00F8D083D082D0E0F9D0E0FAD0E0FBC08216
:10010D00C0830201C4BBFE16E9F8D083D082D0E0D3
:0F011D00F9D0E0FAD0E0FBC082C0830201E822F3
:10012C00BB010DE58229F582E5833AF5830201CD09
:10013C005007E92582F80201BBBBFE07E92582F8CE
:10014C000201DFE58229F582E5833AF5830201F1AC
:10015C00BB0120E58229F582E5833AF583D0F0D006
:10016C00E0F8D0E0F9D0E0FAD0E0FBE8C0E0C0F075
:10017C000201D65018E92582F8D083D082D0E0F95C
:10018C00D0E0FAD0E0FBC082C0830201C4BBFE18F1
:10019C00E92582F8D083D082D0E0F9D0E0FAD0E023
:0901AC00FBC082C0830201E822BD
:0601B5008A838982E473D5
:0901BB00E6FB08E6FA08E6F92269
:0901C400EBF608EAF608E9F62260
:0901CD00E0FBA3E0FAA3E0F92233
:0901D600EBF0A3EAF0A3E9F0222A
:0901DF00E2FB08E2FA08E2F92251
:0901E800EBF208EAF208E9F22248
:0C01F100E493FB740193FA740293F9226A
:00000001FF
